:020000040800F2
:10000000E80B0020C5010008F92F0008D52B0008D7
:10001000F52F0008890E00083135000800000000A7
:10002000000000000000000000000000253500086E
:100030008D0E000800000000FD2F00082935000883
:10004000DF010008DF010008DF010008DF01000810
:10005000DF010008DF010008DF010008DF01000800
:10006000DF010008DF010008DF010008DF010008F0
:10007000DF010008DF010008DF010008DF010008E0
:10008000DF010008DF010008DF010008DF010008D0
:10009000DF010008DF010008DF010008DF010008C0
:1000A000DF010008DF010008DF010008DF010008B0
:1000B000DF010008DF010008DF010008DF010008A0
:1000C000DF010008DF010008DF010008DF01000890
:1000D000DF010008DF010008DF010008DF01000880
:1000E000DF010008DF010008DF01000800F002F86E
:1000F00000F058F814A696E8000CB244B344DA4570
:1001000001D100F04FF8BAE80F000FA696E83000D2
:10011000A5EB040504EB0607AAEB0704A7F101070A
:100120004FEA15154FEA3414A4F10104AC4201D38F
:1001300000F038F813F0010F18BFFB1A43F0010369
:1001400000F001F8DBE71847EC5B00000C5C0000F6
:10015000103A24BF78C878C1FAD8520724BF30C8F3
:1001600030C144BF04680C60704700007047000055
:100170000023002400250026103A28BF78C1FBD8B0
:10018000520728BF30C148BF0B607047752900F087
:100190008180782900F0BA80002070471FB51FBD0C
:1001A00010B510BD00F09CFA1146FFF7F7FF03F001
:1001B00001FB00F0BAFA03B4FFF7F2FF03BC00F052
:1001C000C1FA00000948804709480047FEE7FEE7FA
:1001D000FEE7FEE7FEE7FEE7FEE7FEE7FEE7FEE7F7
:1001E00004480549054A064B704700002D350008B4
:1001F000ED000008E8050020E80B0020E8070020DB
:10020000E80700200FB41CB50C0007AA009007D027
:100210004142A14202D32044401E01E04FF0FF3092
:10022000074B7B4469460190069800F00CFA0020C9
:10023000002C01D0009908701CBC5DF814FB000074
:100240004704000070B5044685690068C10601D501
:10025000302600E02026C00707D070BDD4E9012178
:1002600030469047206A401C20626D1EF6D570BD56
:1002700070B5044685690078C00707D170BDD4E920
:10028000012120209047206A401C20626D1EF6D577
:1002900070BD00002DE9F041064600241068752964
:1002A000314616A510D0AFF30080002802DA404294
:1002B00013A507E031688A0701D512A502E04907B6
:1002C00004D511A5012401E0AFF3008000210A222A
:1002D00006F1240709E0B0FBF2FCB0FBF2F302FBED
:1002E0001C00303078541846491C0028F3D12346AE
:1002F0002A463046BDE8F04100F047B90000000052
:100300002D0000002B0000002000000070B5044606
:100310000D4621461068AFF300802188090502D5FB
:100320000F4A7A4402E00E4A7A440E32002104F168
:10033000240305E000F00F060009965D5E54491C99
:100340000028F7D120780023000704D5702D02D0B3
:1003500009B1022311322046BDE8704000F015B902
:10036000BA4300002DE9F05F894604464FF0000AC9
:10037000DFF824B1FB44C0F820A02046E16888479C
:1003800000287DD0252806D0D4E901219047206A95
:10039000401C2062F1E700255F462046E16888475F
:1003A0002028064607DB312E05D2B81910F8200C9C
:1003B00008B10543F1E7A80701D525F00405C4F805
:1003C0001CA00027C4F818A02A2E09D0304604F03B
:1003D00080F938B304EB8708303EC8F8186019E09C
:1003E00059F8041B204604EB87029161E1688847B5
:1003F000012F064618D1E069002820DA25F02005F3
:100400001DE0D8F8180000EB800006EB4000303803
:10041000C8F818002046E1688847064604F059F9F4
:100420000028EED1012F0AD02E2E08D12046E168F7
:1004300088477F1C0646022F45F02005C4DBA069D3
:10044000002803DA404245F00105A061E80701D029
:1004500025F01005A6B1A6F14100192802D82036D2
:1004600045F400654A463146204625604D46FFF773
:100470008DFE60B1012807D0ED1D25F0070000E0DA
:1004800007E000F1080978E705F1040975E730464F
:100490007AE7206ABDE8F09F90430000032A40F20B
:1004A000308010F0030C00F0158011F8013BBCF116
:1004B000020F624498BF11F801CB00F8013B38BF2E
:1004C00011F8013BA2F1040298BF00F801CB38BF3C
:1004D00000F8013B11F0030300F0D080083AC0F0AF
:1004E000088051F8043B083A51F804CBA0E8081002
:1004F000F5E7121D5CBF51F8043B40F8043BAFF335
:100500000080D20724BF11F8013B11F801CB48BF8E
:1005100011F8012B24BF00F8013B00F801CB48BFC4
:1005200000F8012B704702F0FF0343EA032242EA7E
:10053000024200F002B84FF0000200B513469446A4
:100540009646203922BFA0E80C50A0E80C50B1F12B
:100550002001BFF4F7AF090728BFA0E80C5048BF3F
:100560000CC05DF804EB890028BF40F8042B08BFDD
:10057000704748BF20F8022B11F0804F18BF00F8D9
:10058000012B70477047704770472DE9F0470D46C3
:1005900099469246044600F124080168880604D56D
:1005A000E06921F01001216000E00120A84201DD96
:1005B000471B00E00027A1697A1902EB0900081A1D
:1005C000A0612078C00602D42046FFF73BFE00263B
:1005D00008E0D4E901211AF806009047206A401C7F
:1005E000761C20624E45F4DB2078C0060AD52046F2
:1005F000FFF728FE06E0D4E9012130209047206A69
:10060000401C2062381EA7F10107F4DC07E0D4E9A2
:10061000012118F805009047206A401C2062281E1E
:10062000A5F10105F3DC2046FFF722FE2078000645
:1006300002D50220BDE8F0870120FBE701694A1CD2
:1006400002610878704700B58FB0CDE90131002113
:10065000059105497944CDE9031011466846FFF735
:1006600081FE0FB000BD0000E5FFFFFFD1E90023D0
:100670009A4202D2531C0B601070704710B5203A9A
:10068000C0F00B80B1E81850A0E81850B1E818503D
:10069000A0E81850203ABFF4F5AF5FEA027C24BF0F
:1006A000B1E81850A0E8185044BF18C918C0BDE8F8
:1006B00010405FEA827C24BF51F8043B40F8043BC1
:1006C00008BF7047D20728BF31F8023B48BF11F876
:1006D000012B28BF20F8023B48BF00F8012B7047D0
:1006E000754600F02BF8AE4605006946534620F0EB
:1006F0000700854618B020B5FFF772FDBDE8204021
:100700004FF000064FF000074FF000084FF0000BCD
:10071000AC46ACE8C009ACE8C009ACE8C009ACE83C
:10072000C00921F007018D46704710B50446AFF3AC
:1007300000802046BDE81040FFF73DBD00487047EF
:100740002000002001491820ABBEFEE72600020071
:10075000704700002DE9F0410D46804609B154A0D4
:10076000A84700F0C5FC074600F0C2FCC01B41F2E0
:100770008731884210D841F2883400BF00F07AF9FE
:10078000064602280CD1642000F082FB00F0B0FC89
:10079000C01BA042F2D37FE00220BDE8F08100BF81
:1007A000002E79D1012000F0A3F8002818BFBDE881
:1007B000F0810DB342A0A84700F09AFC064600F075
:1007C00097FC801B41F2873188420DD841F2883472
:1007D00000F050F9022807D0642000F059FB00F027
:1007E00087FC801BA042F3D34FF4FA7000F050FB5B
:1007F00037A0A8471CE000BF00F07AFC064600F0D6
:1008000077FC801B41F2873188420DD841F2883451
:1008100000F030F9022807D0642000F039FB00F026
:1008200067FC801BA042F3D34FF4FA7000F030FB5A
:1008300000F05EFC074600F05BFCC01B41F2873114
:1008400088420FD841F2883400F014F90646022895
:100850000CD1642000F01CFB00F04AFCC01BA0423D
:10086000F2D319E00220BDE8F08100BFA6B9022052
:1008700000F03EF80028F6D195B118A0A84700F086
:10088000A1F8002818BFBDE8F08117A0A84740468E
:10089000BDE8F04100F022BA3046BDE8F08100BF6B
:1008A00000F090F8002818BFBDE8F081EFE700BF26
:1008B000506C6163652066696E67657200000000B8
:1008C00052656D6F76652066696E6765720000001F
:1008D000506C61636520616761696E00436F6D6292
:1008E000696E696E6700000053746F72696E67000D
:1008F0000146033810F1020F3EBFFE21C8B2704717
:10090000B0B590B040F2D805C2F20005286858B3DF
:1009100040F2EF12ADF800204FF0FF32CDF8022088
:100920000122C0F20422CDF806208DF80A1007310A
:1009300000228DF80B208DF80C1069460D224FF423
:10094000FA7302F07DF828B1FE2110B0BDE8B04086
:10095000C8B27047286838B12C1D2146092240F2E0
:10096000DC5301F055FF28B1FE2110B0BDE8B040C6
:10097000C8B270472879FE21EF28E6D168790128AE
:10098000E3D1A87A0728E0D1B5F80B004FF6E27260
:1009900001BA6FF0200000EB114080B29042E3D327
:1009A00028680A0C214640F2DC5301F031FF297916
:1009B000002818BF6FF0010110B0BDE8B040C8B208
:1009C00070470000B0B590B040F2D805C2F2000503
:1009D000286828B340F2EF11ADF800104FF0FF3156
:1009E000CDF802100121C0F20351CDF806104FF4EA
:1009F0001061ADF80A1069460C224FF4FA7302F048
:100A00001FF818B1FE21C8B210B0B0BD286838B1C7
:100A10002C1D2146092240F2DC5301F0F9FE18B1E9
:100A2000FE21C8B210B0B0BD2879FE21EF28EAD16E
:100A300068790128E7D1A87A0728E4D1B5F80B0036
:100A40004FF6E27201BA6FF0200000EB114080B265
:100A50009042E5D328680A0C214640F2DC5301F0AD
:100A6000D7FE2979002818BF6FF00101C8B210B075
:100A7000B0BD0000B0B590B040F2D805C2F200059C
:100A8000286828B340F2EF11ADF800104FF0FF31A5
:100A9000CDF802100121C0F20311CDF806104FF479
:100AA000A061ADF80A1069460C224FF4FA7301F008
:100AB000C7FF18B1FE21C8B210B0B0BD286838B168
:100AC0002C1D2146092240F2DC5301F0A1FE18B191
:100AD000FE21C8B210B0B0BD2879FE21EF28EAD1BE
:100AE00068790128E7D1A87A0728E4D1B5F80B0086
:100AF0004FF6E27201BA6FF0200000EB114080B2B5
:100B00009042E5D328680A0C214640F2DC5301F0FC
:100B10007FFE2979002818BF6FF00101C8B210B01C
:100B2000B0BD0000F0B581B0D0B10E46044600F073
:100B3000DFFA074600F0DCFAC01BB04214D200BF57
:100B4000FFF798FF0546022812D1642000F0A0F9B3
:100B500000F0CEFAC01BB042F2D3284601B0F0BD7F
:100B6000FE25284601B0F0BD0225284601B0F0BDA3
:100B7000002DF2D10120FFF7BBFE05460028ECD185
:100B8000204601B0BDE8F04000F01CB8002804BFCA
:100B9000FE20704780B582B040F2D801C2F2000159
:100BA000086000210191006801680191406801908E
:100BB0000198FA2000F06CF9002002B0BDE88040F6
:100BC00000F0F2B8002804BFFE207047F0B591B0E5
:100BD00040F2D807C2F200070146386800B30E465B
:100BE00040F2EF11ADF804104FF0FF31CDF80610D0
:100BF0000121C0F20841CDF80A100121CFF60071A1
:100C0000CDF80E1040F2FF21ADF812100C218DF836
:100C1000141001A911224FF4FA7301F011FF18B159
:100C2000FE2011B0F0BD00BF38680025019530B13D
:100C3000391D092240F2DC5301F0EAFD30B1FE20FB
:100C400031460D804D8011B0F0BD00BF387931467E
:100C5000EF284FF0FE00F4D17A79012AF1D1BA7A67
:100C6000072AEED1B7F80B004FF6E27302BA6FF025
:100C7000200000EB124080B2984205D2FE200D8089
:100C80004D8011B0F0BD00BF394651F8040B140C73
:100C9000224640F2DC5301F0BBFD0028CFD1387969
:100CA000E11E0A040AD001AB8AB2791D0446184637
:100CB000042A28BF0422FFF7F1FB20460028314612
:100CC000BFD1BDF80400BDF8062000BA000C0880B2
:100CD00010BA050C00204D8011B0F0BDB0B590B039
:100CE00040F2D805C2F200052A689AB3010A40F220
:100CF000EF13ADF800304FF0FF338DF80B10C1B299
:100D0000CDF8023001238DF80C0001EB1020C0F269
:100D100006630E30CDF806300123010A8DF80A3043
:100D20008DF80D108DF80E00694610460F224FF415
:100D3000FA7301F085FE18B1FE21C8B210B0B0BD43
:100D4000286838B12C1D2146092240F2DC5301F0FD
:100D50005FFD18B1FE21C8B210B0B0BD2879FE21E8
:100D6000EF28EAD168790128E7D1A87A0728E4D1E9
:100D7000B5F80B004FF6E27201BA6FF0200000EBFD
:100D8000114080B29042E5D328680A0C214640F217
:100D9000DC5301F03DFD2979002818BF6FF00101F7
:100DA000C8B210B0B0BD000070B590B040F2D80627
:100DB000C2F200063268EAB3010A030C8DF80C1087
:100DC000C0F307418DF80B3001EB1061C0F307232E
:100DD000040E8DF80D001944C0B240F2EF1508441E
:100DE000ADF800504FF0FF351B30CDF80250012513
:100DF000010AC1F207358DF80E108DF80F00694613
:100E0000104610224FF4FA73CDF806508DF80A40C0
:100E100001F016FE20B1FE21C8B210B070BD00BFB7
:100E2000306838B1341D2146092240F2DC5301F00C
:100E3000EFFC18B1FE21C8B210B070BD3079FE21B0
:100E4000EF28E9D170790128E6D1B07A0728E3D1FB
:100E5000B6F80B004FF6E27201BA6FF0200000EB1B
:100E6000114080B29042E5D330680A0C214640F22E
:100E7000DC5301F0CDFC3179002818BF6FF001017F
:100E8000C8B210B070BD0000FEE70000704700005F
:100E9000B0B5044600F02CF9054640F20000C2F25D
:100EA00000000078611C18BF044400BF00F020F966
:100EB000401BA042FAD3B0BD2DE9F04F82B00E68BE
:100EC000002E00F0FD8041F20042C4F20102042332
:100ED00040F2004E904208BF03234FF6FF7CC4F25D
:100EE000010E009300240123C1F2100C4FF0000A00
:100EF0004FF000094BE000BF41F20002C4F20102D2
:100F0000009F904208BF022704F00C030F229A4072
:100F10002BEA020207FA03F34FEA9A051A4346F84E
:100F200025204E6840F20C45F202DEF8082054BF3E
:100F300022EA080242EA0802C4F20105CEF80820BB
:100F40002A68B30254BF22EA080242EA08022A6071
:100F5000B303DEF8042054BF22EA080242EA080282
:100F6000F303CEF80420DEF800204FF0010354BF55
:100F700022EA080242EA0802CEF800200E680AF1CE
:100F8000010A36FA0AF204F1040400F0998003FA27
:100F90000AFB16EA0B08F1D04E68664512DC122EE9
:100FA00056D8DFE806F0350B4D4955555555555582
:100FB0005555555555555545510000BFD1F80C9024
:100FC00046E000BF4FF6FF72C1F2210296420FDCED
:100FD0000022C1F2110296421AD00022C1F212027E
:100FE000964215D00022C1F22102964210D02FE085
:100FF0000022C1F2220296420AD00022C1F231023E
:10100000964205D00022C1F23202964220D100BFA2
:101010008A684AB1012A14BFC0F814B0C0F810B0F1
:101020004FF0080914E000BF4FF0040910E000BFC2
:10103000CA6802F104090BE04FF0000908E000BFA4
:10104000CA6802F1080903E0CA6802F10C0900BF8E
:1010500002462646B8F5807F24BF0432203E17683A
:101060000F25B54027EA050509FA06F63543156050
:10107000CA79D2067FF582AF41F21803C4F20203A7
:101080001A68AEF57E7642F001021A601A6802F024
:1010900001020192019A2AF0030256F802B040F6CA
:1010A0000002C4F20102904208D040F60042C4F2AD
:1010B000010290427FF420AF012725E7002723E7B4
:1010C00002B0BDE8F08F00008068084018BF012022
:1010D00070470000C26802EA0103914341EA0341FC
:1010E00001617047002A08BF0904016170470000D0
:1010F00040F2E050C2F2000000687047002804BFD0
:1011000001207047F0B581B0044690F83D0028B941
:10111000002084F83C00204600F09AFA242084F84D
:101120003D002068016821F001010160016841F47F
:1011300000410160016821F40041016000F04CFCB5
:10114000636848F2A16CC0F2010C40F60011C0F2D5
:101150003D0163453CBF48F28041C0F21E01884218
:1011600002D2012001B0F0BD4DF68361C4F21B3103
:10117000A0FB01122168970CD1F804E04FF4967699
:101180002EF03F0545EA92454D60774348F6381604
:101190000D6AC0F24106A7FB067625F03F076345BE
:1011A00038BF960C721C3A430A62CA6948F2A066BC
:1011B0004CF6FF77C0F20106B34222EA07020BD8D1
:1011C00001385B00B0FBF3F001306FF31F300428EF
:1011D00098BF04201BE000BFA768013857B119274A
:1011E0007B43B0FBF3F001306FF31F3070B100F5BB
:1011F000804007E003EB4303B0FBF3F001306FF3F3
:101200001F3018B100F5004001E000BF012010437D
:10121000C8610868D4E9072320F0C00010431843D0
:101220000860886848F2FF3204F10C0790438CCFC5
:1012300018431043A6698860C86820F0FF0038434F
:101240003043C860086840F0010008600020202199
:10125000206484F83D10206384F83E0001B0F0BDA6
:101260002DE9F04F83B01E46924688460446FFF7AC
:101270003FFF94F83D10202924D12168054600BF86
:10128000886980071AD5FFF733FF401B21681A28A9
:10129000F6D388698007F3D500202021206384F8E5
:1012A0003D1084F83E00216C41F02001216484F857
:1012B0003C00022003B0BDE8F08F00BF94F83C0072
:1012C000012803D1022003B0BDE8F08F4FF00109DF
:1012D00084F83C900868C00703D1086840F001001A
:1012E00008600868002720F400600860242084F863
:1012F0003D000020CFF6FF702764E06208F0FE0892
:10130000BAF1010F88BFD1464FF0A00A4FF0200B71
:1013100004E000BF01374F4500F0A28008680022BA
:1013200040F48070086020464FF00111334600956C
:1013300001F0B0FC2168002856D1C1F81080FFF7F9
:10134000D7FE21684B694A6994F83D50A02D0546A7
:1013500005D013F0020008BF12F480601AD084F8A0
:101360003DB048690A68800742F400720A6045D4BB
:101370006FF48060486100BF88698007CAD5FFF7B5
:10138000B7FE401B21681A28F6D388698007F3D579
:101390004AE000BFB6B100BFFFF7AAFE401BB04253
:1013A00088BF84F83DA021684A69486994F83D30B7
:1013B000A02BD4D012F0020208BF10F48060EBD052
:1013C000CDE700BFFFF794FE84F83DA021684A698D
:1013D000486994F83D30A02BC1D012F00202BED172
:1013E00010F48060EED0BAE70868C00544BF4FF43F
:1013F00000702064032003B0BDE8F08F002002904D
:1014000048690290886902900298886901E000BFEB
:10141000806980071AD5FFF76BFE411B20681A29E7
:10142000F6D381698907F3D500202021206384F851
:101430003D1084F83E00216C41F02001216484F8C5
:101440003C00012003B0BDE8F08F00BF202084F8ED
:101450003D00002084F83C0003B0BDE8F08F00BFE1
:10146000202084F83D00002084F83C00012003B0D7
:10147000BDE8F08F2DE9F04383B01E46174689463C
:101480000446FFF735FE94F83D10202924D1054687
:10149000206800BF816989071AD5FFF729FE411B23
:1014A00020681A29F6D381698907F3D50020202105
:1014B000206384F83D1084F83E00216C41F0200147
:1014C000216484F83C00022003B0BDE8F08300BF33
:1014D00094F83C10012903D1022003B0BDE8F08349
:1014E000012184F83C100168C90703D1016841F06B
:1014F00001010160016840F2020821F4006101600D
:10150000212184F83D10102184F83E10002121642F
:1015100067626685618DC0F201082185A8F102111C
:10152000E162E16A0A9E11F5803F18BF01291DD1D1
:10153000016841F48071016020464FF001110022E2
:101540003346009501F0A6FB50B120680068C00545
:1015500044BF4FF400702064012003B0BDE8F08365
:101560002069B0F5804F07D1FE2015E00829DFD0B3
:10157000216B1229DCD0DFE7062000EAD9102168B0
:10158000F030086108F10601204632462B4601F092
:1015900067FC0028E0D1FF20216800EA090008610B
:1015A0002046414632462B4601F05AFC0028D3D152
:1015B000002002902068416902918069029002989F
:1015C00006E000BF204631462A4601F005FB18BB65
:1015D000208D68B3204631462A4601F0ADFCD8B9CB
:1015E000606A2168024612F8013B0B616262628DFB
:1015F000013A6285228D531E23854F697F07E1D50D
:101600001B04DFD0437802300B616062608D0138CB
:101610006085901E2085D5E7206C04289CD1206829
:10162000016841F400710160012003B0BDE8F0835E
:101630002068016841F400710160202084F83D00B9
:10164000002084F83E0084F83C0003B0BDE8F0833D
:1016500010B586B0006845F20041C4F2000188422E
:101660004FF00000CDE90400CDE9020002D006B041
:1016700010BD00BF41F21804C4F20204206802A9A0
:1016800040F008002060206800F0080001900198F8
:101690004FF440700290122003900320059040F612
:1016A0000040C4F20100FFF707FC0420C4F201006F
:1016B000016841F0E06141F002010160606840F4BE
:1016C00000106060606800F400100190019806B09E
:1016D00010BD000040F2000040F2E051C2F20000F4
:1016E000C2F2000100780A681044086070470000E8
:1016F00080B542F20000C4F20200016841F010011E
:101700000160032000F07AF80F2000F005F800F0E7
:1017100027F8002080BD000070B540F20006C2F23C
:10172000000640F218013278C2F200014FF47A73D9
:101730000968B3FBF2F20446B1FBF2F1084600F08F
:1017400073FB0F2C4FF0010508D838B94FF0FF306C
:1017500021460022002500F025F87460284670BD5F
:1017600082B041F21800C4F202000168022241F086
:1017700001010160016801F00101019101994168D5
:1017800041F080514160406800F080500090009826
:101790000420C4F20100016862F31A61016002B022
:1017A0007047000010B54EF60C5CCEF2000CDCF871
:1017B0000030C3F3022E8EF00704042C28BF04244B
:1017C000BEF103034FF0FF3E0EFA04F438BF0023CE
:1017D000A14399400EFA03F39A43114300F00F021C
:1017E00000F160430901043A03F5644362440028B0
:1017F00048BF02F10C03197010BD00004EF60C51E9
:10180000CEF200010A684FF6FF031A4060F30A2285
:1018100042F0806040F0FD7008607047002804BF0F
:10182000012070472DE9F04381B042F20008C4F274
:1018300002080446D8F800000D4600F00700814277
:101840000CD9D8F8000020F007002843C8F80000A1
:10185000D8F8000000F00700A8426CD1206841F2DF
:1018600004098107C4F2020917D5410705D5D9F843
:10187000001041F4E061C9F80010010705D5D9F85E
:10188000001041F46051C9F80010D9F80010A268A6
:1018900021F0F0011143C9F80010C00742D1D8F877
:1018A000000000F0070085420CD2D8F8000020F0BC
:1018B00007002843C8F80000D8F8000000F007002F
:1018C000A84238D12068410707D5D9F80010E2684E
:1018D00021F4E0611143C9F80010000708D5D9F8D8
:1018E0000000216920F4605040EAC100C9F80000FE
:1018F000D9F8002002F00C00082841F20020C0F2C4
:101900007A004DD145F6FC33C2F38341C0F60003A3
:10191000595CD20338D440F60010C0F23D00484371
:101920003EE000BF606859F8041C022808D0012876
:1019300026D1890306D4012001B0BDE8F08300BFA1
:101940008901F8D5D9F8001021F003010843C9F83E
:101950000000FFF7CDFB064641F28837D9F80000BA
:10196000616800F00C00B0EB810F98D0FFF7C0FB6E
:10197000801BB842F2D9032001B0BDE8F08300BF5C
:101980008907D8D5DEE700BFD9F8002045F6FA333D
:10199000C2F34042C0F600039A5C4843B0FBF2F049
:1019A000D9F8001044F21972C1F30311C0F6000215
:1019B000515C40F2180220FA01F140F20400C2F238
:1019C00000000068C2F200021160FFF7A5FE0020CF
:1019D00001B0BDE8F083000040F2180041F20401BC
:1019E000C2F20000C4F202010068096844F22972E0
:1019F000C1F30221C0F60002515CC84070470000EC
:101A000040F2180041F20401C2F20000C4F20201E7
:101A10000068096844F22972C1F3C221C0F60002CD
:101A2000515CC84070470000002804BF0120704787
:101A30002DE9F04182B00446007841F20006C0076B
:101A4000C4F202060CD0706800F00C00042840F0CC
:101A500081803068800303D56068002800F04681EB
:101A6000207880071BD5706810F00C0F09D07068C3
:101A700000F00C00082840F087807068C00300F177
:101A800083803068800703D52069012840F02E81CB
:101A90003068616920F0F80040EAC10030602078C9
:101AA000000713D4207840072CD4E569002D00F0FE
:101AB0001881706800F00C00082840F0A780012D04
:101AC00040F00481012002B0BDE8F081A069002847
:101AD00000F084800020C4F242200121C0F880146C
:101AE000FFF706FB054600BF706A800700F1B28071
:101AF000FFF7FEFA401B0228F6D9032002B0BDE82A
:101B0000F08100BFF0695FEAC00808D4F06940F0D6
:101B10008050F061F06900F080500090009847F22A
:101B20000007C4F200073868C00549D4386840F49B
:101B300080703860FFF7DCFA054600BF3868C005E2
:101B40003ED4FFF7D5FA401B6428F7D9032002B032
:101B5000BDE8F081706800F00C00082803D17068BF
:101B6000C0033FF576AF61683068002900F00C8152
:101B7000B1F5A02F00F00081B1F5803F40F01A814F
:101B800040F480301CE100BF2069002840F20000D2
:101B9000C4F2422000F0888001210160FFF7A8FA1A
:101BA000054600BF306880073FF572AFFFF7A0FA27
:101BB000401B0228F6D9032002B0BDE8F08100BF27
:101BC000E168306A002900F09D80052900F09280CC
:101BD000012940F0AF8040F00100B1E00020C4F2E4
:101BE00042200021C0F88014FFF782FA054600BFAA
:101BF000706A80077FF556AFFFF77AFA401B02281C
:101C0000F6D9032002B0BDE8F08100BF0027C4F27E
:101C1000422700203866FFF76BFA022D05460DD1EA
:101C20003068800140F1DE80FFF762FA401B022835
:101C30004FF00300F4D902B0BDE8F08130688001B4
:101C40004FD5FFF755FA401B02284FF00300F5D996
:101C5000F1E700BF40F21800C2F20000006844F64D
:101C6000D351C1F26201A0FB0101480A019000BFFB
:101C700000BF0198411E002801913FF413AF00BF3F
:101C80000198411E002801913FF40CAF00BF01985C
:101C9000411E002801913FF405AF00BF0198411E8D
:101CA00000280191E4D1FDE600210160FFF720FA50
:101CB000054600BF306880077FF5F1AEFFF718FAE0
:101CC000401B02284FF00300F4D9B4E77068216A82
:101CD00000F480328A4209D1616A00F470108842AF
:101CE00004D1002002B0BDE8F08100BF012002B0A5
:101CF000BDE8F08140F004003062306A40F001003D
:101D00001EE000BF20F001003062306A20F00400C5
:101D10003062FFF7EDF9054641F28837306A8007F7
:101D200020D5FFF7E5F9401BB8424FF00300F5D985
:101D300081E700BF20F001003062306A20F004002B
:101D40003062FFF7D5F9054641F28837306A8007DF
:101D500008D4FFF7CDF9401BB842F7D9032002B0F1
:101D6000BDE8F081B8F1000F3FF59FAEF06920F0BB
:101D70008050F06199E600BF40F480203060306808
:101D800040F480301CE000BF20F4803030603068C8
:101D900020F480203060FFF7ABF9054630688003FF
:101DA0007FF55EAEFFF7A4F9401B64284FF00300F7
:101DB000F4D940E720F480303060306820F480208F
:101DC0003060FFF795F90546306880033FF548AE6F
:101DD000FFF78EF9401B6428F6D9032002B0BDE856
:101DE000F08100BF206AB0F5803F05D17168A2681C
:101DF00021F40031114371607168626A21F4741139
:101E000011430843706001203866FFF771F90446FA
:101E1000306880013FF565AFFFF76AF9001B0228C3
:101E20004FF00300F4D906E7411E0020B0EB116F1C
:101E30001CBF012070474EF21002CEF2000251602A
:101E40004EF62351CEF20001F0230B700721906073
:101E50001160704790F83C20012A4FF0020236D002
:101E600010B580F83D200268D2F804E0D2F808C02E
:101E70000C682EF07003234340F2FF74C4F2000498
:101E8000A24253600ADCB2F1804F13D040F200430B
:101E9000C4F200039A420DD011E000BF42F60043A5
:101EA000C4F201039A4205D040F60003C4F20003D5
:101EB0009A4204D149682CF08003194391600121B2
:101EC000002280F83D1080F83C20BDE8104010460C
:101ED00070470000002804BF0120704710B590F83B
:101EE0003D1031B9002180F83C10044600F070F834
:101EF0002046022180F83D10016840F2FF740B6813
:101F0000C4F2000442F6004CA142C4F2010C15DCFC
:101F1000B1F1804F1AD040F20042C4F20002914267
:101F200014D0A14218DCB1F1804F1DD040F2004224
:101F3000C4F20002914217D01AE000BF614505D0FB
:101F400040F60002C4F200029142EAD1826823F016
:101F500070031343A142E6DD614505D040F600025F
:101F6000C4F20002914203D1026923F44073134387
:101F7000846923F08002D0F804E0C36822436145FD
:101F80000A60CB62C1F828E002D14269CCF8302067
:101F900001224A610B69DB0703D00B6923F00103BF
:101FA0000B6180F8462080F83E2080F83F2080F8C2
:101FB000402080F8412080F8422080F8432080F8BB
:101FC000442080F8452080F83D20002010BD00000E
:101FD00082B0006840F20041C4F20001884215D08E
:101FE00042F60041C4F2010188421CD141F21800BE
:101FF000C4F20200016841F400610160006800F46D
:1020000000600190019802B0704700BF41F21800D3
:10201000C4F20200416841F002014160406800F0F2
:1020200002000090009802B07047000090F83D1048
:1020300001291CBF01207047022180F83D10006873
:1020400040F2FF71C4F20001884209DCB0F1804F18
:1020500012D040F20041C4F2000188420CD012E0DC
:1020600042F60041C4F20101884205D040F6000169
:10207000C4F20001884206D1816801F007010629F7
:1020800004BF00207047016841F001010160002099
:10209000704700000146006841F21113026A1A42BB
:1020A00004D00122002081F83D207047026A40F2EE
:1020B00044431A42F5D1026822F001020260012273
:1020C000002081F83D20704790F83C20012A4FF015
:1020D00002026CD080B580F83D20D0F800C04FF6E9
:1020E0007772DCF8083023EA0202CCF808200B688B
:1020F0004F2B29DC1F2B45DD202B46D0302B44D025
:10210000402B40F0AF80D1F804E0C968DCF8203003
:10211000DCF8202022F00102CCF82020DCF8182086
:1021200022F0F00242EA011123F00A0242EA0E0212
:10213000CCF81810CCF82020DCF8081041F047014A
:1021400021F0300128E000BF6F2B33DDB3F5005FD5
:1021500074D0B3F5805F21D0702B40F08380D1E93B
:1021600001E3C968DCF8082043EA0E0322F47F4249
:1021700043EA01211143CCF80810DCF8081041F0C3
:10218000770109E00BB1102B6CD1DCF8081021F0BD
:102190007001194341F00701CCF808100022012119
:1021A00080F83D10002180F83C10BDE880401046CA
:1021B000704700BF502B21D0602B53D1D1F804E0E1
:1021C000C968DCF82030DCF8202022F01002CCF8BE
:1021D0002020DCF8182022F4704242EA013123F07A
:1021E000A00242EA0E12CCF81810CCF82020DCF83D
:1021F000081041F0670121F01001CDE7D1F804E0AB
:10220000C968DCF82030DCF8202022F00102CCF88C
:102210002020DCF8182022F0F00242EA011123F01D
:102220000A0242EA0E02CCF81810CCF82020DCF8A2
:10223000081041F0570121F02001ADE7D1E901E399
:10224000C968DCF8082043EA0E0322F47F4243EA1F
:1022500001211143CCF80810DCF8081041F480414A
:102260009AE700BF01229AE780B586B0016840F284
:102270000040C4F2000081424FF00001CDE904119A
:10228000CDE9021102D006B080BD00BF41F21801B5
:10229000C4F202010A6800F5843042F008020A60C4
:1022A000096801F0080101910199012102910221BF
:1022B0000391059102A9FEF7FFFD06B080BD000065
:1022C00090F83C30012B04BF022070474FEAB20265
:1022D000032A00F2F1802DE9F043DFE802F003A5C4
:1022E0003B7500BF036842F600461D6A1A6AC4F2D5
:1022F000010622F001021A621A465C6852F818CFF1
:10230000B3428E68D1F800E025F0020545EA0605E3
:102310000CD1CE68D1E9057824F4407425F00C0581
:1023200026F004063C43354344EA08042CF07307C6
:1023300047EA0E075C609F614F6809695F631D6231
:102340009F6947F008079F619F6927F004079F6115
:10235000A6E000BF036842F600461D6A1A6AC4F28E
:10236000010622F480721A621A46D3F804C052F8A9
:102370001CEFB3428E680C6825F4007545EA06250B
:102380000FD1CE68D1E90598360240F2FF4725F417
:102390004065BE4335432CF4405748EA090647EAF6
:1023A000061C2EF073072743C3F804C0DF614F6893
:1023B0000969DF631D62DF6947F00807DF61DF69D4
:1023C00027F00407DF616BE0036842F60047D3F8AB
:1023D00020C01A6AC4F2010722F480521A621A4617
:1023E0005C6852F81C5FD1F800E08E68BB4204D1F3
:1023F0004F6924F4804444EA87142CF4005747EAD8
:10240000063725F4E64646EA0E265C60DE614E6835
:1024100009691E641F62DF6947F40067DF61DF69D5
:1024200027F48067DF613AE0036842F600461D6AE0
:102430001A6AC4F2010622F010021A621A46D3F890
:1024400004C052F8184FB3428E68D1F800E025F06E
:10245000200545EA06150FD1CE68D1E905986FF041
:10246000400725F0C00507EA061635432CF44067FF
:1024700048EA090647EA860C24F4E64444EA0E27B3
:10248000C3F804C09F614F6809699F631D629F691B
:1024900047F400679F619F6927F480679F61090285
:1024A0001368194311600021BDE8F043002280F851
:1024B0003C200846704700BF0121002280F83C20E4
:1024C00008467047002804BF0120704710B590F8F7
:1024D0003D1031B9002180F83C10044600F070F83E
:1024E0002046022180F83D10016840F2FF740B681D
:1024F000C4F2000442F6004CA142C4F2010C15DC07
:10250000B1F1804F1AD040F20042C4F20002914271
:1025100014D0A14218DCB1F1804F1DD040F200422E
:10252000C4F20002914217D01AE000BF614505D005
:1025300040F60002C4F200029142EAD1826823F020
:1025400070031343A142E6DD614505D040F6000269
:10255000C4F20002914203D1026923F44073134391
:10256000846923F08002D0F804E0C3682243614507
:102570000A60CB62C1F828E002D14269CCF8302071
:1025800001224A610B69DB0703D00B6923F00103C9
:102590000B6180F8462080F83E2080F83F2080F8CC
:1025A000402080F8412080F8422080F8432080F8C5
:1025B000442080F8452080F83D20002010BD000018
:1025C00070470000C1B1042908D0082914BF412276
:1025D0004022825C012A05D016E000BF3F22825CC7
:1025E000012A11D10222082910D0042914BF80F831
:1025F000412080F83F200BE090F83E20012A03D1D3
:10260000022280F83E2003E00120704780F840203D
:10261000006801F01F010122036A8A4023EA0201D7
:102620000162036A42F64441C4F201011A43A1F176
:102630004403984202620FD040F2FF71C4F20001DD
:10264000884213DCB0F1804F1CD040F20041C4F24C
:102650000001884216D01CE00A6842F400420A6079
:1026600040F2FF71C4F200018842EBDD42F6004106
:10267000C4F20101884205D040F60001C4F2000115
:10268000884206D1816801F00701062904BF0020B5
:102690007047016841F001010160002070470000AF
:1026A000002804BF0120704710B5044690F841008F
:1026B00028B9002084F84000204600F063F8242068
:1026C00084F841002068D4E90212C36823F400535F
:1026D000C360036923F440531A430261D4E904231D
:1026E0001143C268194341F20C639A431143C1601C
:1026F0004169A26921F44071114343F60002C4F21A
:1027000001029042416103D0FFF766F902E000BF89
:10271000FFF776F9D4E90023192148439900B0FB6B
:10272000F1F048F21F5CC5F2EB1CA0FB0C314FF638
:102730009C734909C0F6FF7301FB0300322303EBCE
:102740000010A0FB0C03F02000EA531000EB011076
:10275000C3F34311084490601069202120F4904095
:102760001061506920F02A005061D06840F4005098
:10277000D0600020606484F8411084F842106063E7
:1027800010BD000070B586B040F60044C4F20104EC
:10279000006804F53051002688420596CDE90366AD
:1027A000029601D006B070BD41F21800C4F20200DA
:1027B000016802AD41F480410160016801F480418B
:1027C00001910199016841F0080101600068294602
:1027D00000F0080001900198402002900220039030
:1027E000032005902046FEF767FB8020CDE9020616
:1027F000204629460496FEF75FFB0420C4F2010040
:10280000016841F0E06141F00401016006B070BD73
:102810002DE9F04381B0044690F84200202809D108
:10282000884600294FF0010018BF002A06D101B0E8
:10283000BDE8F083022001B0BDE8F0830020222132
:102840001D46606484F8421020631646FEF750FC73
:10285000A685E685A1680746B1F5805F02D12069AB
:10286000002851D046464FF00008E08D00284FD098
:1028700005F101090CE000BF406800266FF35F20FE
:1028800028F8020BE08D0138E085E08D00283FD06C
:1028900020680168890617D4B9F1000F22D0002DF5
:1028A00000F0CA80FEF724FCC01BA84200F2BC80E6
:1028B0002068C168490744BF01685FEA01712FD4ED
:1028C00001688906EED500BF002ED5D0A168B1F50C
:1028D000805F15D009B9216991B1406800F07F008F
:1028E0000FE000BF01688906EED4016889065CBF6D
:1028F00001685FEA8161E7D401688906F2D5E3E700
:10290000406806F8010BBDE70026E08D0028AFD136
:102910000020202184F8421001B0BDE8F08300BF00
:10292000002100910168009140680090009800BF6C
:10293000206850E8030F216820F4907041E80302FA
:10294000BAB3206850E8030F216820F4907041E882
:10295000030272B3206850E8030F216820F49070DE
:1029600041E803022AB3206850E8030F216820F4ED
:10297000907041E80302002ADAD11AE0206850E89A
:10298000050F216820F0010041E80502DAB1206856
:1029900050E8050F216820F0010041E8050292B1DE
:1029A000206850E8050F216820F0010041E8050289
:1029B0004AB1206850E8050F216820F0010041E885
:1029C0000502002ADAD1206B012824D1206850E8C2
:1029D000030F216820F0100041E80302DAB12068FB
:1029E00050E8030F216820F0100041E8030292B183
:1029F000206850E8030F216820F0100041E803022E
:102A00004AB1206850E8030F216820F0100041E827
:102A10000302002ADAD1202084F842000020082195
:102A20002063616484F840000320202184F8421070
:102A300001B0BDE8F08300BFFEF75AFBF4E70000E9
:102A40002DE9F04381B0044690F84100202809D1D7
:102A500000294FF0010018BF002A07D101B0BDE8DE
:102A6000F08300BF022001B0BDE8F0830020606465
:102A700021201D460E4684F841001746FEF738FB1C
:102A8000A784E784A1688146B1F5805F02D12069FF
:102A900000285DD037460020E28C2168002A5DD0F6
:102AA0006A1C24D0002D4AD0804600BF086800066A
:102AB00008D4FEF71DFBA0EB0900A8427AD82168D4
:102AC000C868F3E717B117F8010B04E038F8020BF8
:102AD00000276FF35F204860E08C0138E084E08CD1
:102AE0000028E3D13AE000BF0A68120609D40A6858
:102AF000120606D40A6812065CBF0A685FEA026220
:102B0000F2D51FB117F8012B05E000BF30F8022BFA
:102B100000276FF35F224A60E28C013AE284E28C84
:102B2000002AE4D11AE000BF30F8022B00276FF32F
:102B30005F224A60E28C013AE284E28C72B10A6858
:102B4000120635D5002FEFD017F8012BF1E700BFA3
:102B500000273046E28C2168002AA1D1086840068F
:102B60001ED42DB3681C14D1086840062AD4086806
:102B7000400627D40868400624D4086840064FF071
:102B80000000F1D50DE000BF2068C1680068400674
:102B900018D4FEF7ADFAA0EB0900A842F4D909E079
:102BA0000020202184F8411001B0BDE8F08300BF6F
:102BB000FEF79EFA0320202184F8411001B0BDE801
:102BC000F08300BF0020202184F8411001B0BDE84F
:102BD000F0830000FEE7000070B50368044653F878
:102BE000140F400711D40E46481C29D086BB00BFE5
:102BF0001868400527D4FEF77BFA236853F8140FB2
:102C0000400737D518684007F2D5002070BD00BFD7
:102C100018684007F9D41868400514D418684007AC
:102C2000F3D4186840050ED418684007EDD418682E
:102C3000400508D4186840074FF0000048BF70BD39
:102C400018684005E4D56FF480601860042012E035
:102C5000154603E053F8140F4007D6D41868400512
:102C6000F1D4FEF745FA401B2368B042F2D9586907
:102C70004007EFD4202000212022216384F83D204A
:102C800084F83E10226C10432064012084F83C102C
:102C900070BD00002DE9F041054600681E4614464F
:102CA00001F47F0201338FB242D0DDF81880B2F513
:102CB000803F40F0878040693840C01BB0FA80F008
:102CC0004009844240F0C8804EB924E04069384051
:102CD000C01BB0FA80F04009844240F0BD80FEF78E
:102CE00007FAA0EB08012868B142EFD941693940E1
:102CF000C91BB1FA81F149098C42E7D19BE000BFC1
:102D000040693840C01BB0FA80F0400984424FF05F
:102D1000000040F0A280FEF7EBF9286841693940D5
:102D2000C91BB1FA81F149098C42E9D183E000BFA6
:102D3000B2F5803F24D100BF41693940C91BB1FAC7
:102D400081F149098C4240F0878041693940C91BB3
:102D5000B1FA81F149098C4240F07E8041693940E5
:102D6000C91BB1FA81F149098C4275D141693940D9
:102D7000C91BB1FA81F149098C42DDD06CE000BF7A
:102D800081693940C91BB1FA81F149098C4263D18B
:102D900081693940C91BB1FA81F149098C425BD183
:102DA00081693940C91BB1FA81F149098C4253D17B
:102DB00081693940C91BB1FA81F149098C42DFD0E0
:102DC0004AE000BF80693840C01BB0FA80F040097B
:102DD000844241D146B923E080693840C01BB0FA33
:102DE00080F04009844237D1FEF782F9A0EB080158
:102DF0002868B142F0D981693940C91BB1FA81F123
:102E000049098C42E8D116E080693840C01BB0FA0D
:102E100080F0400984424FF0000018BFBDE8F08107
:102E2000FEF766F9286881693940C91BB1FA81F15A
:102E300049098C42E8D100202021286385F83D1003
:102E400085F83E00296C41F02001296485F83C009A
:102E50000120BDE8F08100BF0020BDE8F081000046
:102E6000F0B581B0044600681D4643698FB203EA9D
:102E70000701B94202D1002001B0F0BD41691646F8
:102E800001323CD0490512D47EB300BFFEF730F9C1
:102E9000411B2068B14203D941693940B9422BD165
:102EA00041693940B942E6D041694905EED501682A
:102EB00041F4007101606FF48061416104200021E0
:102EC0002022216384F83D2084F83E10226C1043B8
:102ED000206484F83C10012001B0F0BD4169394004
:102EE000B942C8D041694905E1D4FEF701F920682B
:102EF00041693940B942F1D02020E0E741694905F4
:102F0000D5D441693940B942B5D041694905CED4DB
:102F100041693940B942AED041694905C7D44169D8
:102F20003940B942A7D041694905C0D44169394007
:102F3000B942E3D19FE7000070B50368044653F837
:102F4000140F000611D40E46481C29D086BB00BFC2
:102F50001868400527D4FEF7CBF8236853F8140F00
:102F6000000637D518680006F2D5002070BD00BFF6
:102F700018680006F9D41868400514D418680006CB
:102F8000F3D4186840050ED418680006EDD418680C
:102F9000400508D4186800064FF0000048BF70BD17
:102FA00018684005E4D56FF480601860042012E0D2
:102FB000154603E053F8140F0006D6D418684005F0
:102FC000F1D4FEF795F8401B2368B042F2D9586956
:102FD0000006EFD4202000212022216384F83D2028
:102FE00084F83E10226C10432064012084F83C10C9
:102FF00070BD0000FEE70000FEE700007047000023
:1030000080B50246002840F2FC00C2F200004FF4F6
:10301000806118BFFF22FDF786FA80BD40F2D00222
:10302000C2F2000250809180704700002DE9F0410B
:1030300082B040F2FC40C2F200007821012244F646
:103040002063FEF70DF94FF0000418B1204602B0DE
:10305000BDE8F08140F2FC454FF42E40C2F200057D
:10306000ADF806000A260DF1060228467821022353
:103070000096FEF7FFF94FF400580DF106022846BE
:1030800078210223ADF806800096FEF7F3F94FF49D
:1030900080570DF10602284678210223ADF806700C
:1030A0000096FEF7E7F94FF43040ADF806000DF159
:1030B00006022846782102230096FEF7DBF94FF43A
:1030C0004840ADF806000DF106022846782102239B
:1030D0000096FEF7CFF90DF106022846782102236B
:1030E000ADF806400096FEF7C5F90DF10602284638
:1030F00078210223ADF806700096FEF7BBF94FF475
:103100008040ADF806000DF1060228467821022322
:103110000096FEF7AFF94FF40140ADF806000DF14F
:1031200006022846782102230096FEF7A3F94FF401
:103130007F40ADF806000DF10602284678210223F3
:103140000096FEF797F94FF42140ADF806000DF117
:1031500006022846782102230096FEF78BF94FF4E9
:103160002640ADF806000DF106022846782102231C
:103170000096FEF77FF94FF42840ADF806000DF1F8
:1031800006022846782102230096FEF773F94FF4D1
:103190007C50ADF806000DF1060228467821022386
:1031A0000096FEF767F94FF42440ADF806000DF1E4
:1031B00006022846782102230096FEF75BF94FF4B9
:1031C0005340ADF806000DF106022846782102238F
:1031D0000096FEF74FF90DF10602284678210223EA
:1031E000ADF806400096FEF745F94FF45540ADF8AE
:1031F00006000DF106022846782102230096FEF70C
:1032000039F94FF47040ADF806000DF1060228467A
:10321000782102230096FEF72DF94FF45940ADF8BE
:1032200006000DF106022846782102230096FEF7DB
:1032300021F94FF40850ADF806000DF106022846BA
:10324000782102230096FEF715F94FF45A40ADF8A5
:1032500006000DF106022846782102230096FEF7AB
:1032600009F94FF49050ADF806000DF1060228461A
:10327000782102230096FEF7FDF84FF45B40ADF88D
:1032800006000DF106022846782102230096FEF77B
:10329000F1F80DF10602284678210223ADF80680E8
:1032A0000096FEF7E7F84FF40D40ADF806000DF17B
:1032B00006022846782102230096FEF7DBF84FF439
:1032C000A050ADF806000DF1060228467821022331
:1032D0000096FEF7CFF84FF42F40ADF806000DF141
:1032E00006022846782102230096FEF7C3F84FF421
:1032F0003850ADF806000DF1060228467821022369
:103300000096FEF7B7F840F2FC00C2F200004FF45E
:103310008061FDF710F900F0B5F840F2D000C2F27C
:103320000000C0F802400124204602B0BDE8F08150
:103330002DE9F04F89B040F2D005C2F200056B884C
:1033400091F8008008EB03077F2F05D89C46AB88D7
:103350004E78F7183F2F03D9002009B0BDE8F08F51
:10336000002E009066D02D782038B5FA85F77C09BC
:10337000B2FA82F7029078090790002D18BF012554
:103380004868121BB2FA82F20190002750094446A5
:1033900008950690CDE9033104E000BF0024013711
:1033A000B74247D2002CF9D0DA1995B23F2DF6D8A2
:1033B0000298019B704303EB400030F817A002F025
:1033C0000700012303FA00F54FF4607091F80080C4
:1033D00000EA021B6FEA050E0022059703E000BF1A
:1033E0000132424520D20CEB02061FFA86F9B9F1F0
:1033F0007F0FF5D846EA0B0640F2FC000AFA02F10C
:10340000B6B2C2F200000904835D0699DDE90774D3
:1034100058BF87EA040103EA0E04002918BF43EAF3
:1034200005048455DCE700BF0499039B4E78059F93
:103430004446B4E75FFA88F040F2D0016044C2F23B
:10344000000148805DF8240BBDE8F08F0378002B65
:1034500004BF0020704770B514460D46461C00BFDF
:10346000D8B229462246FFF763FF16F8011C8842AE
:1034700004D116F8013B002BF2D10021BDE87040C9
:10348000084670472DE9F04FC1B00DF1040B40F232
:10349000FC460BF101094FF000086FF07F050A248C
:1034A000C2F200064FF0000A40F2FC008035C2F282
:1034B00000002F184AF0B0008DF805003046782142
:1034C0005A4602238DF804800094FDF7D3FF30465E
:1034D00078215A460223ADF804800094FDF7CAFF14
:1034E0004FF48050ADF80400304678215A4602234C
:1034F0000094FDF7BFFF40208DF804004846394690
:103500008022FCF7CBFF304678215A468123009475
:10351000FDF7B0FFB5F5607F0AF1010AC4D141B0F3
:10352000BDE8F08F70470000FEF7D4B87047000088
:10353000FEE7000070B540F28006C2F20006317866
:10354000044631B978200021AF2201F0ABF8012008
:1035500030700020FFF754FD00200021FFF75EFDD2
:1035600040F21005C2F2000509A029460122FFF72A
:103570006DFF00201021FFF751FD20462946012252
:10358000FFF764FFFFF77EFFFDF7B2FD706070BDCF
:1035900046696E6765727072696E743A0000000069
:1035A00010B540F28004C2F20004207830B97820CF
:1035B0000021AF2201F076F8012020700020FFF7F3
:1035C0001FFD00200021FFF729FD40F2080445F609
:1035D000A340C2F20004C0F6000021460122FFF71A
:1035E00035FF00201421FFF719FD45F6FF40C0F616
:1035F000000021460122FFF729FF00202821FFF7C4
:103600000DFD45F69740C0F6000021460122FFF768
:103610001DFFBDE81040FFF735BF0000B0B540F614
:103620000004C4F20104204680210122FDF75AFD66
:10363000204640210022FDF755FD20462021002292
:10364000FDF750FD204610210022FDF74BFD2046DE
:103650000821FDF739FD012802D1312518E000BF0E
:1036600020460421FDF730FD012801D132250FE06D
:1036700020460221FDF728FD012801D1332507E06E
:1036800020460121FDF720FD0025012808BF412526
:10369000204680210022FDF725FD20464021012201
:1036A000FDF720FD20460821FDF70EFD012801D180
:1036B000342516E020460421FDF706FD012801D13E
:1036C00035250EE020460221FDF7FEFC012801D140
:1036D000362506E020460121FDF7F6FC012808BF4B
:1036E0004225204640210022FDF7FCFC20462021F7
:1036F0000122FDF7F7FC20460821FDF7E5FC012833
:1037000002D1372517E000BF20460421FDF7DCFC7D
:10371000012801D138250EE020460221FDF7D4FC16
:10372000012801D1392506E020460121FDF7CCFC16
:10373000012808BF4325204620210022FDF7D2FCA6
:10374000204610210122FDF7CDFC20460821FDF77F
:10375000BBFC012806D12A251420FDF799FB284639
:10376000B0BD00BF20460421FDF7AEFC012805D105
:1037700030251420FDF78CFB2846B0BD20460221E1
:10378000FDF7A2FC012805D123251420FDF780FBBD
:103790002846B0BD20460121FDF796FC012805D141
:1037A00044251420FDF774FB2846B0BD002DD3D16D
:1037B0000020B0BD96B0FDF79BFF04AC201D242176
:1037C000FCF7B9FE02200490012008901020099017
:1037D000002520460B95FEF727F928B1EFF310805E
:1037E00072B600BFFEE700BF0F2710A80021CDE989
:1037F0001075CDE912551495FEF710F820B1EFF3CE
:10380000108072B6FEE700BF002641F21800CDE935
:103810000666CDE90466C4F20200016841F20009BF
:1038200041F0040101600168C4F2010901F00401E2
:10383000109110990168A9F5006841F00801016034
:103840000168002201F008011091109901684FF001
:10385000F00B41F0100101600068F02100F0100051
:10386000109010984046FDF73DFC40464FF4007123
:103870000022FDF737FCA9F5806A5046022100229C
:103880000224FDF72FFC48464FF400510122012588
:10389000FDF728FCCDE9047604AF4046394606948E
:1038A000FDF70AFB40463946CDE904B5CDE906648B
:1038B000FDF702FB4FF4007004A961C103200790DB
:1038C00040463946FDF7F8FA4FF48070CDE904061A
:1038D000404639460696FDF7EFFA04A870C05046F8
:1038E00039460794FDF7E8FA4FF4005004A961C186
:1038F000484639460794FDF7DFFA40F2FC40A9F547
:103900003C41C2F2000041F680224FF48043C0F2F5
:10391000060280E84600C0E90363C0E90566C0E925
:103920000766FDF7EBFB28B1EFF3108072B600BF1E
:10393000FEE700BF40F28005C2F20005A9F586311E
:10394000284640F8081F0F2142F20F721396CDE966
:103950001166CDE90E66CDE90966CDE90766C0E9D5
:103960000116C0E903268661FEF7B4FA20B1EFF331
:10397000108072B6FEE700BF4FF4805005F10807D3
:10398000109010A93846FEF79FFB28B1EFF3108086
:1039900072B600BFFEE700BF3846FEF793FD28B1C0
:1039A000EFF3108072B600BFFEE700BF0EA93846E5
:1039B000FEF750FA20B1EFF3108072B6FEE700BFB9
:1039C00060200490002404A938460822CDE905446B
:1039D0000894FEF775FC28B1EFF3108072B600BFB3
:1039E000FEE700BF3846FEF73FFC40F2505009F5B5
:1039F000E051C2F200004FF6FF730794CDE9054491
:103A0000CDE91044072280E81600C0E90334C0E97C
:103A10000544FEF75FFA28B1EFF3108072B600BFDD
:103A2000FEE700BF4FF48050049040F25050C2F2C5
:103A3000000004A9FEF748FB20B1EFF3108072B636
:103A4000FEE700BF40F2505BC2F2000B10A95846DF
:103A500056464446FEF7FEF920B1EFF3108072B6E9
:103A6000FEE700BF40F2985009F52051C2F2000075
:103A70004FF000080C234FF4614280E80601C0E9D2
:103A80000388C0E90538C0F81C80FEF709FE18B1AC
:103A9000EFF3108072B6FEE748F6D02ACFF6FF7A31
:103AA000FFF7C4FA384608215746FEF78BFDA86891
:103AB000FA21C16301202870FFF772FD40F6C4109F
:103AC000FDF7E6F940F29850C2F20000FDF75EF80B
:103AD000B0FA80F04009687000F054FDFDF708FB73
:103AE00045F6194A6860C0F6000A0120CDE90206D1
:103AF00003E000BF3C20FDF7CBF920464FF40071F6
:103B00000022FDF7EFFADBF80000C0F824805846E9
:103B1000FEF78CFADBF80000416A012908D8416AF7
:103B2000012905D8416A012902D8416A0229F3D343
:103B30005846FEF7AFFA20464FF400710122FDF718
:103B4000D1FADBF80000C0F824805846FEF76EFA80
:103B5000DBF80000416A092908D8416A092905D81B
:103B6000416A092902D8416A0A29F3D35846FEF767
:103B700091FA20464FF400710022FDF7B3FA3E4659
:103B800020464FF48071FDF79FFA18B90136F7D33C
:103B9000B7E000BFDBF80000C0F824805846FEF70D
:103BA00045FA3E4620464FF48071FDF78DFA012814
:103BB00006D10136F6D35846FEF76CFAA1E000BFF5
:103BC000DBF80000466A5846FEF764FA4CF6093006
:103BD000C8F63D50A6FB0001C1F34F122878052A14
:103BE00000F28880002840F0858078200021AF22F4
:103BF00000F058FD012028700020FFF701FA002096
:103C00000021FFF70BFA40F2080645F6A340C2F286
:103C10000006C0F6000031460122FFF717FC002025
:103C20001421FFF7FBF945F6FF40C0F600003146CE
:103C30000122FFF70BFC00202821FFF7EFF945F6E2
:103C40009740C0F6000031460122FFF7FFFBFFF767
:103C500019FC4FF4FA60FDF71BF9287830B9782089
:103C60000021AF2200F01EFD012028700020FFF788
:103C7000C7F900200021FFF7D1F940F21006C2F287
:103C80000006504631460122FFF7E0FB00200E21DE
:103C9000FFF7C4F945F6E240C0F6000031460122C4
:103CA000FFF7D4FB00201A21FFF7B8F945F6AE4024
:103CB000C0F6000031460122FFF7C8FB0020262194
:103CC000FFF7ACF945F66040C0F60000314601222E
:103CD000FFF7BCFB00203421FFF7A0F945F61F5089
:103CE000C0F6000031460122FFF7B0FBFFF7CAFB28
:103CF00004E000BF490989B2052903D8FDF7F8F9A6
:103D00006860287800283FF4F5AEB946FFF786FCD6
:103D1000002800F0FB800746FFF780FC0028FBD15D
:103D2000FDF7E6F9A7F131011329686000F2EE8092
:103D30004F46DFE811F015005901ED00A002A00286
:103D4000A002A002A002A002A002A002A002A00263
:103D5000A002A002A002A002A002A002BD0100BF1A
:103D600069782878002900F0D68130B978200021C0
:103D7000AF2200F097FC012028700020FFF740F9E7
:103D800000200021FFF74AF940F2100645F6BE4038
:103D9000C2F20006C0F6000031460122FFF756FBD2
:103DA00000201021FFF73AF945F60C40C0F600005C
:103DB00031460122FFF74AFBFFF764FB10A841F2EE
:103DC0008831FCF7AFFE0346002840F0D381BDF8F0
:103DD0004270322FC0F0CE81BDF8403045F613520C
:103DE00004A81421C0F600020097FCF70BFA41F278
:103DF0000000C4F201004FF400510022FDF772F9F7
:103E0000039802210122FDF76DF9029945F6484712
:103E1000481E18BF01200190A868012940F2E24124
:103E200018BFFA21C1632878C0F6000745F6414162
:103E3000C0F6000118BF0F4630B978200021AF222C
:103E400000F030FC012028700020FFF7D9F8002096
:103E50000021FFF7E3F840F2100645F69140C2F268
:103E60000006C0F6000031460122FFF7EFFA0020FD
:103E70001021FFF7D3F8384631460122FFF7E6FA62
:103E8000FFF700FB4FF4FA60FDF702F841F2000083
:103E9000C4F201004FF400510122FDF723F9039809
:103EA00002210022FDF71EF9FDF722F9297868604A
:103EB00031B978200021AF2200F0F4FB01202870F6
:103EC0000020FFF79DF800200021FFF7A7F840F23F
:103ED000100645F68940C2F20006C0F600003146E1
:103EE0000122FFF7B3FA00201021FFF797F804A88A
:103EF00031460122FFF7AAFAFFF7C4FA4FF44870DF
:103F0000FCF7C6FF0198029066E100BF4F46B2E1A0
:103F10000FF2B44000F0AAFA002800F0D58041F278
:103F20000000C4F201004FF400510022FDF7DAF85E
:103F3000039802210122FDF7D5F8029945F648477A
:103F40004E1E18BF0126A868012940F2E24118BFA1
:103F5000FA21C1632878C0F6000745F64141C0F652
:103F6000000118BF0F4630B978200021AF2200F0C1
:103F700099FB012028700020FFF742F80020002163
:103F8000FFF74CF840F2100AC2F2000A0FF2484064
:103F900051460122FFF75AFA00201021FFF73EF8A0
:103FA000384651460122FFF751FAFFF76BFA4FF4FA
:103FB000FA60FCF76DFF41F20000C4F201004FF41B
:103FC00000510122FDF78EF8039802210022FDF72F
:103FD00089F8FDF78DF845F6194A686002964F4654
:103FE000C0F6000AFCE000BF6878002800F092806C
:103FF0000FF2F83000F03AFA002865D040F21C00C9
:10400000C2F2000090F90030B3F1FF3F40F3C080EE
:1040100004A814210FF2E4327F260096FCF7F2F890
:10402000287830B978200021AF2200F03BFB012036
:1040300028700020FEF7E4FF00200021FEF7EEFFCD
:1040400040F21006C2F20006F0A031460122FFF74E
:10405000FDF900201021FEF7E1FF04A831460122FE
:10406000FFF7F4F9FFF70EFA4FF44870FCF710FF72
:1040700040F21C00C2F20000007843F23551C0F655
:104080000001FCF767FB002800F00C8110AE45F63C
:104090002842034630461021C0F60002FCF7B2F871
:1040A000DEA0314640F2DC5200F0C2FA95E000BFDB
:1040B0002878012840F0DF8078200021AE2200F02F
:1040C000F1FA85F80080D6E0287830B97820002110
:1040D000AF2200F0E7FA012028700020FEF790FFE1
:1040E00000200021FEF79AFF40F2100645F67040CE
:1040F000C2F20006C0F6000031460122FFF7A6F921
:1041000000201021FEF78AFF45F63340C0F600007C
:1041100024E000BF287830B978200021AF2200F0D9
:10412000C1FA012028700020FEF76AFF002000215C
:10413000FEF774FF40F2100645F6F440C2F20006A6
:10414000C0F6000031460122FFF780F9002010215F
:10415000FEF764FF45F67F40C0F6000031460122BD
:10416000FFF774F9FFF78EF940F2DC50FCF790FE90
:1041700036E000BF092B13D0022B1BD145F60950A6
:1041800045F6CB41C0F60000C0F6000120E000BFBC
:10419000AEA0B2A140F2DC5200F04AFA20E000BF2B
:1041A00045F6514045F63341C0F60000C0F6000127
:1041B0000EE000BF04AE45F6284230461021C0F69E
:1041C0000002FCF71FF845F6D540C0F60000314666
:1041D00040F2DC5200F02CFA4F46FCF789FF686091
:1041E000287830B978200021AF2200F05BFA012056
:1041F00028700020FEF704FF00200021FEF70EFFCC
:1042000040F21006C2F20006504631460122FFF786
:104210001DF900200E21FEF701FF45F6E240C0F631
:10422000000031460122FFF711F900201A21FEF7A4
:10423000F5FE45F6AE40C0F6000031460122FFF71C
:1042400005F900202621FEF7E9FE45F66040C0F69C
:10425000000031460122FFF7F9F800203421FEF773
:10426000DDFE45F61F50C0F6000031460122FFF783
:10427000EDF8FFF707F9FCF73BFF6968401A42F2D7
:1042800010718842FFF436AC287801287FF432ACF4
:1042900078200021AE2200F005FA85F80080FFF7B3
:1042A00029BC00BF40F21C06C2F20006337810A8F9
:1042B00014215EA2FBF7A6FF307829780130307018
:1042C00031B978200021AF2200F0ECF901202870EC
:1042D0000020FEF795FE00200021FEF79FFE40F231
:1042E0001006C2F2000655A031460122FFF7AEF8D3
:1042F00000201021FEF792FE10A831460122FFF7A0
:10430000A5F8FFF7BFF841F20006C4F201063046F7
:104310004FF400510122FCF7E5FE30464FF4005106
:10432000FCF7D8FEC820FCF7B3FD30464FF400512F
:10433000FCF7D0FEC820FCF7ABFD30464FF400512F
:10434000FCF7C8FEC820FCF7A3FD30464FF400512F
:10435000FCF7C0FEC820FCF79BFD30464FF400512F
:10436000FCF7B8FEC820FCF793FD30464FF400512F
:10437000FCF7B0FEC820FCF78BFD30464FF400512F
:10438000FCF7A8FEC820FCF783FD30464FF400512F
:10439000FCF7A0FEC820FCF77BFD30464FF400512F
:1043A000FCF798FEC820FCF773FD30464FF400512F
:1043B000FCF790FEC820FCF76BFD30464FF400512F
:1043C0000122FCF78FFE08E7456E7465722050618C
:1043D0007373776F72643A00436F7272656374200F
:1043E00070617373776F72640000000041646D69DF
:1043F0006E2070617373776F72643A00736C6F74C0
:10440000202575206F66202575000000456E726FAF
:104410006C6C696E6720617400000000456E726FFD
:104420006C6C206661696C656400000053617665A0
:10443000642028494420257529000000456E726FCC
:104440006C6C6D656E74204F4B0000004D656D6F98
:1044500072792066756C6C21000000004D61782037
:10446000736C6F7473207573656400002DE9F04FF1
:1044700081B00446FFF7D2F80028FBD140F2800952
:10448000C2F2000999F8000038B978200021AF2263
:1044900000F008F9012089F800000020FEF7B0FDC7
:1044A00000200021FEF7BAFD40F2100AC2F2000A15
:1044B0002046514601220124FEF7C8FF00201421A6
:1044C000FEF7ACFDFEF7DEFFFCF712FE064643F6F4
:1044D00099250FF2A40B4FF0000802E0B8F1040F89
:1044E00045DAFCF705FE801BA8421FD2FFF796F8BD
:1044F0000028F3D007462A2051460122FEF718FF74
:10450000FEF7C0FF1BF8080087424FF0000018BFFD
:10451000044600BFFFF782F80028FBD108F101082C
:10452000FCF7E6FDC9F80400D8E700BF99F80000E1
:1045300038B978200021AF2200F0B4F8012089F8C2
:10454000000000200024FEF75BFD00200021FEF7A4
:1045500065FD40F2100109A0C2F200010122FEF740
:1045600075FFFEF78FFF4FF47A70FCF791FC204641
:1045700001B0BDE8F08F00BF3538363954696D653C
:104580006F75740010B540F28004C2F20004207808
:1045900030B978200021AF2200F084F8012020708B
:1045A0000020FEF72DFD00200021FEF737FD40F230
:1045B000100445F61940C2F20004C0F6000021467E
:1045C0000122FEF743FF00200E21FEF727FD45F6EE
:1045D000E240C0F6000021460122FEF737FF00202E
:1045E0001A21FEF71BFD45F6AE40C0F6000021463D
:1045F0000122FEF72BFF00202621FEF70FFD45F6D6
:104600006040C0F6000021460122FEF71FFF002097
:104610003421FEF703FD45F61F50C0F60000214689
:104620000122FEF713FFBDE81040FEF72BBF00008C
:10463000F0B581B040F28007C2F2000714463A7824
:104640000D46064632B978200021AF2200F02AF844
:10465000012038700020FEF7D3FC00200021FEF777
:10466000DDFC3EB140F21001C2F2000130460122F1
:10467000FEF7ECFE5DB100201021FEF7CFFC40F20A
:104680001001C2F2000128460122FEF7DFFEFEF70C
:10469000F9FE2CB1204601B0BDE8F040FCF7F8BBB4
:1046A00001B0F0BD80B582B0034640F2FC408DF809
:1046B00006108DF807204FF00A0CC2F200000DF131
:1046C000060219460223CDF800C0FCF7D3FE02B063
:1046D00080BD30380A2801D2012070470020704781
:1046E0003031323334353637383941424344454628
:1046F0004030580030313233343536373839616222
:104700006364656640307800040000080000000023
:104710000000000200010000100000000000000086
:10472000000102030406070809000000000102035B
:104730000400000000000000000000000000000075
:104740000000000000000000000000000000000069
:104750000000000000000000000C000C000C000C29
:10476000000C000C000C000C000C000C000C0000F5
:10477000000C000C0000000000000000001B001BEB
:10478000001B001B001B00000000000000000000D8
:104790000000000000000000000000000000000019
:1047A0008019801980198019C07FC07F801900335B
:1047B000C07FC07F003300330033003300000000AF
:1047C00000000000001E003F807580650074003C02
:1047D000001E00078005806580658075003F001E13
:1047E0000004000400000000007000D840D8C0D8C9
:1047F00080D900730006000C801BC036C066C0461E
:10480000C00680030000000000000000001E003F02
:10481000003300330033001E000CC03CC0668063D0
:1048200080618063C03E801C00000000000000002A
:10483000000C000C000C000C000C0000000000003C
:104840000000000000000000000000000000000068
:104850000000800000010003000600060004000CB8
:10486000000C000C000C000C000C000400060006FC
:10487000000300018000002000100018000C000C54
:1048800000040006000600060006000600060004FC
:10489000000C000C0018001000200000000C002D7F
:1048A000003F001E00330000000000000000000078
:1048B00000000000000000000000000000000000F8
:1048C00000000000000C000C000C000CC0FFC0FF3A
:1048D000000C000C000C000C0000000000000000A8
:1048E00000000000000000000000000000000000C8
:1048F000000000000000000000000000000C000CA0
:104900000004000400080000000000000000000097
:104910000000000000000000001E001E000000005B
:104920000000000000000000000000000000000087
:104930000000000000000000000000000000000077
:1049400000000000000C000C00000000000000004F
:104950000003000300030006000600060006000C2A
:10496000000C000C000C00180018001800000000DB
:1049700000000000001E003F003380618061806104
:10498000806D806D8061806180610033003F001E1A
:1049900000000000000000000006000E001E0036AF
:1049A00000260006000600060006000600060006B7
:1049B000000600060000000000000000001E003F8E
:1049C000807380618061800100030006000C001884
:1049D00000300060807F807F000000000000000049
:1049E000001C003E006300630003000E000E000385
:1049F0008001800180618073003F001E0000000084
:104A0000000000000006000E000E001E001E001632
:104A1000003600360066807F807F000600060006B4
:104A20000000000000000000007F007F00600060C8
:104A30000060006E007F8063800180018061807370
:104A4000003F001E0000000000000000001E003FAC
:104A5000803380610060006E007F807380618061C0
:104A600080618033003F001E000000000000000055
:104A7000807F807F80010003000300060006000C99
:104A8000000C000C000800180018001800000000BE
:104A900000000000001E003F8063806180610021F3
:104AA000001E003F8061806180618061003F001EC8
:104AB0000000000000000000001E003F0073806145
:104AC000806180618073803F801D80018061007300
:104AD000003F001E00000000000000000000000079
:104AE00000000000000C000C0000000000000000AE
:104AF00000000000000C000C00000000000000009E
:104B000000000000000000000000000C000C00008D
:104B10000000000000000000000C000C0004000475
:104B20000008000000000000000080008003000E6C
:104B3000003800600038000E800380000000000094
:104B40000000000000000000000000000000000065
:104B5000807F807F00000000807F807F0000000059
:104B60000000000000000000000000000000000045
:104B7000000000400070001C000780010007001CBE
:104B80000070004000000000000000000000000075
:104B9000001F803FC071C060C000C00180030007DB
:104BA000000E000C000C0000000C000C00000000C7
:104BB00000000000001E003F803180718063806F24
:104BC000806D806D806F806700600032003E001C49
:104BD0000000000000000000000E000E001B001B83
:104BE000001B001B80318031803F803F8031C060DE
:104BF000C060C0600000000000000000007C007E7B
:104C00000063006300630063007E007E00638061D8
:104C100080618063007F007E0000000000000000D3
:104C2000001E003F80318061006000600060006015
:104C30000060006080618031003F001E00000000C5
:104C400000000000007C007F006380638061806161
:104C5000806180618061806100630063007E007C10
:104C60000000000000000000807F807F0060006086
:104C700000600060007F007F0060006000600060F6
:104C8000807F807F0000000000000000807F807F28
:104C90000060006000600060007F007F00600060D6
:104CA0000060006000600060000000000000000084
:104CB000001E003F80318061006000600060806302
:104CC0008063806180618031803F001E00000000B1
:104CD000000000008061806180618061806180618E
:104CE000807F807F80618061806180618061806180
:104CF0000000000000000000003F003F000C000C1E
:104D0000000C000C000C000C000C000C000C000C43
:104D1000003F003F00000000000000008001800113
:104D2000800180018001800180018001800180611B
:104D300080618073003F001E000000000000000042
:104D4000C0608061006300660066006C0078007CD3
:104D500000660066006380618061C0600000000042
:104D60000000000000600060006000600060006003
:104D7000006000600060006000600060807F807FF5
:104D80000000000000000000C071C071C07BC07A4C
:104D9000C06AC06AC06EC064C060C060C060C060ED
:104DA000C060C060000000000000000080718071E1
:104DB000807980798079806D806D806D8065806775
:104DC000806780678063806300000000000000004F
:104DD000001E003F003380618061806180618061DE
:104DE0008061806180610033003F001E0000000090
:104DF00000000000007E007F806380618061806130
:104E00008063007F007E00600060006000600060E2
:104E10000000000000000000001E003F0033806121
:104E2000806180618061806180618065806700331E
:104E3000803F401E0000000000000000007E007F58
:104E40008063806180618063007F007E0066006314
:104E5000006380618061C06000000000000000000D
:104E6000000E001F8031803100300038001E000726
:104E70008003806180618031003F001E00000000DF
:104E800000000000C0FFC0FF000C000C000C000C74
:104E9000000C000C000C000C000C000C000C000CB2
:104EA000000000000000000080618061806180617E
:104EB00080618061806180618061806180618073D8
:104EC000003F001E0000000000000000C060C06045
:104ED000C060803180318031001B001B001B001B33
:104EE000000E000E000E0004000000000000000094
:104EF000C0C0C0C0C0C0C0C0C0C0C0CC804C804C0E
:104F0000805E80528052807380618061000000006A
:104F100000000000C0C0806080610033003B001EC4
:104F2000000C000C001E001F003B80718061C0C09F
:104F30000000000000000000C0C0806180610033FC
:104F40000033001E001E000C000C000C000C000CB6
:104F5000000C000C0000000000000000803F803FBB
:104F60008001000300030006000C000C001800186C
:104F700000300060807F807F000000000000000F94
:104F8000000F000C000C000C000C000C000C000CBE
:104F9000000C000C000C000C000C000C000C000FAE
:104FA000000F0000001800180018000C000C000C86
:104FB000000C0006000600060006000300030003C4
:104FC000000000000000001E001E00060006000693
:104FD00000060006000600060006000600060006A1
:104FE000000600060006001E001E0000000C000C5B
:104FF000001E001200330033806180610000000059
:1050000000000000000000000000000000000000A0
:105010000000000000000000000000000000000090
:105020000000000000000000000000000000E0FFA1
:105030000000000000380018000C00000000000014
:105040000000000000000000000000000000000060
:105050000000000000000000000000000000000050
:10506000001F803F80618001801F803F80618063DE
:10507000807FC03800000000000000000060006079
:1050800000600060006E007F8073806180618061DD
:1050900080618073007F006E00000000000000004F
:1050A0000000000000000000001E003F80738061CF
:1050B0000060006080618073003F001E00000000FF
:1050C000000000008001800180018001801D803F80
:1050D000807380618061806180618073803F801D0A
:1050E00000000000000000000000000000000000C0
:1050F000001E003F00738061807F807F00608071B0
:10510000003F001E0000000000000000C007C00FAC
:10511000000C000C807F807F000C000C000C000C49
:10512000000C000C000C000C00000000000000004F
:10513000000000000000801D803F8073806180615E
:10514000806180618073803F801D80018063007F6B
:10515000003E00000060006000600060006F807F23
:105160008071806180618061806180618061806127
:105170000000000000000000000600060000000023
:10518000003E003E0006000600060006000600067F
:1051900000060006000000000000000600060000F7
:1051A0000000003E003E0006000600060006000665
:1051B00000060006000600060046007E003C0000D7
:1051C0000060006000600060806100630066006C49
:1051D000007C0076006300638061C0600000000016
:1051E00000000000003E003E00060006000600062B
:1051F000000600060006000600060006000600067F
:10520000000000000000000000000000000000009E
:1052100080DDC0FFC0CEC0CCC0CCC0CCC0CCC0CC28
:10522000C0CCC0CC00000000000000000000000066
:1052300000000000006F807F80718061806180616C
:1052400080618061806180610000000000000000DA
:105250000000000000000000001E003F807380611D
:105260008061806180618073003F001E000000004B
:1052700000000000000000000000006E007F80734E
:1052800080618061806180618073007F006E00605A
:105290000060006000600000000000000000801D51
:1052A000803F807380618061806180618073803F16
:1052B000801D80018001800180010000000000004D
:1052C000000000000067803F0039003000300030EF
:1052D000003000300030003000000000000000000E
:1052E0000000000000000000001E803F80610060A0
:1052F000007F803F80018061007F001E0000000071
:10530000000000000000000800180018007F007F67
:10531000001800180018001800180018801F800FCF
:10532000000000000000000000000000000000007D
:105330008061806180618061806180618061806363
:10534000807F803D000000000000000000000000A1
:1053500000000000C060803180318031001B001BE4
:10536000001B000E000E0006000000000000000000
:10537000000000000000000080DD80DD80DD0055C1
:105380000055005500770077002200220000000041
:1053900000000000000000000000000080610033F9
:1053A0000033001E000C000C001E0033003380612F
:1053B000000000000000000000000000000080610C
:1053C0008061803100330033001B001B001B000E86
:1053D000000E000E001C007C0070000000000000A9
:1053E00000000000C07FC07F800100030006000CA9
:1053F00000180030C07FC07F000000000000800364
:10540000800700060006000600060006000E001CCD
:10541000001C000E000600060006000600068007BD
:1054200080030006000600060006000600060006CF
:10543000000600060006000600060006000600063C
:105440000006000600060038003C000C000C000CB2
:10545000000C000C000E00070007000E000C000CF2
:10546000000C000C000C003C0038000000000000A4
:1054700000000000000000008038807F004700002E
:10548000000000000000000000000000000000001C
:10549000000000000000000000000000000000000C
:1054A000000000100010001000100010001000009C
:1054B0000010000000000028002800280000000064
:1054C0000000000000000000000000240024007C18
:1054D00000240048007C004800480000000000381C
:1054E00000540050003800140054005400380010DC
:1054F0000000002000540058003000280054001420
:1055000000080000000000100028002800100034EF
:105510000048004800340000000000100010001097
:105520000000000000000000000000000000000873
:10553000001000200020002000200020002000108B
:1055400000080020001000080008000800080008FB
:105550000008001000200010003800100028000093
:10556000000000000000000000000000000000102B
:105570000010007C0010001000000000000000007F
:1055800000000000000000000000000000100010FB
:1055900000100000000000000000000000380000C3
:1055A00000000000000000000000000000000000FB
:1055B00000000000001000000000000800080010BB
:1055C0000010001000100020002000000000003833
:1055D00000440044005400440044004400380000EB
:1055E00000000010003000500010001000100010EB
:1055F00000100000000000380044004400040008CF
:1056000000100020007C000000000038004400046E
:1056100000180004000400440038000000000008E6
:105620000018002800280048007C0008000800003E
:105630000000007C004000400078000400040044AA
:1056400000380000000000380044004000780044AA
:1056500000440044003800000000007C0004000802
:105660000010001000200020002000000000003882
:105670000044004400380044004400440038000066
:1056800000000038004400440044003C0004004492
:1056900000380000000000000000001000000000C2
:1056A00000000000001000000000000000000000EA
:1056B00000100000000000000010001000100000AA
:1056C0000000000C003000400030000C0000000022
:1056D0000000000000000000007C0000007C0000D2
:1056E000000000000000000000000060001800043E
:1056F00000180060000000000000003800440004B2
:105700000008001000100000001000000000003829
:105710000044004C0054005C004000400038000091
:10572000000000100028002800280028007C004409
:105730000044000000000078004400440078004469
:10574000004400440078000000000038004400409D
:10575000004000400040004400380000000000709D
:105760000048004400440044004400480070000029
:105770000000007C00400040007C004000400040F1
:10578000007C00000000007C0040004000780040E9
:10579000004000400040000000000038004400408D
:1057A0000040005C00440044003800000000004459
:1057B00000440044007C00440044004400440000D5
:1057C0000000003800100010001000100010001041
:1057D000003800000000000400040004000400047D
:1057E000000400440038000000000044004800505D
:1057F00000600050004800480044000000000040E5
:10580000004000400040004000400040007C00009C
:1058100000000044006C006C00540044004400444C
:105820000044000000000044006400640054005480
:10583000004C004C004400000000003800440044CC
:105840000044004400440044003800000000007898
:105850000044004400440078004000400040000044
:105860000000003800440044004400440044005458
:105870000038000400000078004400440044007830
:105880000048004800440000000000380044004088
:105890000030000800040044003800000000007CD4
:1058A0000010001000100010001000100010000088
:1058B000000000440044004400440044004400440C
:1058C0000038000000000044004400440028002884
:1058D00000280010001000000000004400440054A4
:1058E00000540054006C0028002800000000004410
:1058F00000280028001000100028002800440000A4
:10590000000000440044002800280010001000108F
:10591000001000000000007C0004000800100010CF
:1059200000200040007C0000000000180010001063
:1059300000100010001000100010001000180020CF
:1059400000200010001000100010000800080000E7
:1059500000000030001000100010001000100010B7
:105960000010001000300010002800280044000043
:105970000000000000000000000000000000000027
:1059800000000000000000000000000000FE0020F9
:1059900000100000000000000000000000000000F7
:1059A00000000000000000380044003C0044004CAF
:1059B0000034000000000040004000580064004433
:1059C000004400640058000000000000000000389F
:1059D0000044004000400044003800000000000483
:1059E00000040034004C00440044004C003400002B
:1059F00000000000000000380044007C004000442B
:105A0000003800000000000C0010007C00100010A6
:105A10000010001000100000000000000000003422
:105A2000004C00440044004C003400040078004066
:105A3000004000580064004400440044004400005A
:105A40000000001000000070001000100010001096
:105A50000010000000000010000000700010001096
:105A6000001000100010001000E00040004000484E
:105A7000005000600050004800440000000000702A
:105A800000100010001000100010001000100000A6
:105A9000000000000000007800540054005400543E
:105AA00000540000000000000000005800640044A2
:105AB00000440044004400000000000000000038E2
:105AC000004400440044004400380000000000008E
:105AD0000000005800640044004400640058004086
